:100000000C942A000C9447000C9447000C94470071
:100010000C9447000C9447000C9447000C94470044
:100020000C9447000C9447000C9447000C94470034
:100030000C9447000C9447000C9447000C94470024
:100040000C9447000C9447000C9447000C94470014
:100050000C94470011241FBECFE5D8E0DEBFCDBF12
:1000600010E0A0E6B0E0EAEBFCE002C005900D92E3
:10007000A63DB107D9F720E0A6EDB0E001C01D9282
:10008000A03FB207E1F70E9484020C945B060C9437
:10009000000029B330E0082E02C0359527950A9458
:1000A000E2F720FD1FC0EFE3FCE93197F1F700C054
:1000B000000029B330E0082E02C0359527950A9438
:1000C000E2F720FD0FC021E030E0A90101C0440F9C
:1000D0008A95EAF7842F29B330E02823232BD9F31C
:1000E00081E0089580E00895CF93DF930E94570147
:1000F0008091E9001F928F938091EA001F928F9365
:100100008091EB001F928F9380E690E09F938F93F6
:10011000C8EDD0E0DF93CF930E94630364E080E0FA
:100120000E946101CE010E944A018091EF001F925E
:100130008F938091EE001F928F938091ED001F921C
:100140008F938FE690E09F938F93DF93CF930E94DE
:10015000630362E081E00E9461018DB79EB744961F
:100160000FB6F8949EBF0FBE8DBFCE01DF91CF9129
:100170000C944A010E9457018091D600823079F197
:10018000D8F4811125C080E890E00E944A01809156
:10019000EB001F928F938BE790E09F938F9388EDF6
:1001A00090E09F938F930E9463030F900F900F90A6
:1001B0000F900F900F9004C08330C1F08430E9F0AD
:1001C00067E081E00E94610188ED90E00C944A01B3
:1001D0008AE890E00E944A018091EA00DACF86E93D
:1001E00090E00E944A018091ED00D3CF8FE990E02A
:1001F0000E944A018091EE00CCCF89EA90E00E94F3
:100200004A018091EF00C5CF92B39F7092BB92B329
:10021000807F982B92BB919A85E08A95F1F7000038
:10022000919887EC90E00197F1F700C000000895E5
:10023000CF93DF930F92CDB7DEB7898390988981F2
:100240000E94040189818295807F0E9404018FE9C8
:100250009FE00197F1F700C000000F90DF91CF9170
:100260000895CF93DF930F92CDB7DEB78983909A2D
:1002700089810E94040189818295807F0E94040106
:1002800087EC90E00197F1F700C000000F90DF913C
:10029000CF910895CF93DF93EC018881811103C042
:1002A000DF91CF91089521960E943101F6CF81E030
:1002B0000E9418018FE99FE00197F1F700C000004C
:1002C0000895811104C080E8860F0C94180180EC19
:1002D000FBCF0F931F93CF93DF93CDB7DEB72A9752
:1002E0000FB6F894DEBF0FBECDBF9F938F9383ED03
:1002F00090E09F938F938E010F5F1F4F1F930F937B
:100300000E946303C8010E944A010F900F900F9052
:100310000F900F900F902A960FB6F894DEBF0FBE85
:10032000CDBFDF91CF911F910F910895889A899A3F
:100330008C9A8D9A8E9A8F9A8FE39CE90197F1F7A8
:1003400000C0000082E00E94180188E20E941801AB
:100350008CE00E94180186E00E9418010C9457015D
:10036000982F92959F708F702AE0929F800D112494
:1003700008956AE00E9457038295807F892B089533
:1003800011B880E280B984E086BF089594EA96BFF0
:1003900006B607FEFDCF91B1987F983021F091B15C
:1003A000987F903169F483B984E886BF06B607FE6A
:1003B000FDCF91B1987F81E0983121F0903411F018
:1003C00080E00895089584E986BF06B604FCFDCF59
:1003D000089583B984E886BF06B607FEFDCF089569
:1003E00084EC86BF06B607FEFDCF83B1089584E88E
:1003F00086BF06B607FEFDCF83B108951F93CF9346
:10040000DF93EC0180ED0E94C601811106C010E06F
:10041000812FDF91CF911F91089580E00E94E90123
:1004200081ED0E94C601182F811589F30E94F00109
:100430008F770E94B00188830E94F0010E94B00172
:1004400089830E94F0010E94B0018A830E94F0011A
:100450008B830E94F0010E94B0018C830E94F00106
:100460000E94B0018D830E94F7010E94B0018E832B
:100470000E94E301CDCFCF93DF9300D00F92CDB791
:10048000DEB78A839B8380ED0E94C6018983811534
:10049000A1F180E00E94E901EA81FB8180810E9454
:1004A000B9010E94E901EA81FB8181810E94B901C1
:1004B0000E94E901EA81FB8182810E94B9010E94C8
:1004C000E901EA81FB8183810E94E901EA81FB81E4
:1004D00084810E94B9010E94E901EA81FB81858142
:1004E0000E94B9010E94E901EA81FB8186810E9494
:1004F000B9010E94E9010E94E30189810F900F90E8
:100500000F90DF91CF9108958AB3887F8ABB8BB318
:1005100087608BBBB89AC0980E9496010E94C00168
:100520000E94570182EB90E00E944A012FEF89E67A
:1005300098E1215080409040E1F700C0000089EE32
:1005400090E00E94FE01811541F0C0988091D70093
:10055000811591F00E94BA0011C0C09A0E94570103
:100560008EEB90E00E944A012FEF84E39CE0215043
:1005700080409040E1F7E1CF0E94740080E00E944B
:100580004900811589F08091D700811106C081E072
:100590008093D7001092D60007C08091D6008F5F5D
:1005A0008630C0F78093D60081E00E944900811513
:1005B00001F18091D7008115E1F08091D600833060
:1005C00009F456C070F4813009F444C08230B9F5A2
:1005D0008091E9008F5F8C3308F047C08093E90079
:1005E00006C0843009F44EC0853009F455C00E941D
:1005F000BA0082E00E9449008115C9F08091D700BD
:100600008115A9F089EE90E00E943B021092D7007C
:100610000E94570188EC90E00E944A012FEF87E882
:1006200093E1215080409040E1F700C000002FE7A7
:1006300089EA93E0215080409040E1F77ECF80919D
:10064000EB008F5F883118F48093EB00D0CF1092CD
:10065000EB00CDCF8091EA008F5F8C3318F480934C
:10066000EA00C5CF1092EA00C2CF1092E900BFCFD6
:100670008091ED008F5F803218F48093ED00B7CF4A
:1006800081E0FBCF8091EE008F5F8D3018F4809376
:10069000EE00ADCF81E0FBCF8091EF008F5F84361D
:1006A00018F48093EF00A3CF1092EF00A0CF99270A
:1006B00078E0880F991F961708F0961B881F7A9587
:1006C000C9F780950895AEE0B0E0E9E6F3E00C9458
:1006D000340686E08C832B893C8929833A838FEF0B
:1006E0009FE78D839E83AE01495E5F4F6D897E8952
:1006F000CE0101960E948703EF81F8852B893C8902
:10070000E20FF31F10822E96E2E00C945006ABE04D
:10071000B0E0EDE8F3E00C9427066C017B018A0160
:10072000FC0116821782838181FFDFC13AE0532EDC
:10073000F6012381F70123FD859123FF81917F013C
:10074000811509F437C1853239F423FD959123FFD2
:1007500091917F01953229F4B60190E00E948E05B7
:10076000E7CF30E0912C612C712CF0E27F1640F540
:100770009B32D9F058F49032D1F09332F1F09E329E
:1007800091F576FC17C1689476F806C09D3291F019
:100790009033C1F4689470F8F70123FD959123FF1D
:1007A00091917F019111E1CF28C0689471F868940C
:1007B00072F8F2CF689473F8EFCF689474F8ECCFC6
:1007C00077FC1BC080ED890F8A30C8F676FE05C025
:1007D000959C800D1124982EDFCF659C800D1124EF
:1007E000682E7F2AD9CF9C3619F4689477F8D4CF35
:1007F0009C3409F445C0983679F2892F8F7D855451
:10080000833008F43FC0933609F461C0933709F48C
:100810006BC0933509F477C0943619F0993609F016
:10082000A4C0F80177FE9AC0619171918191919174
:100830008F01272D2F76822E97FF04C00E941C0661
:10084000689487F82AE030E05E014FEFA41AB40AFA
:10085000A5010E94BE05782E7A1886FECFC0882D8D
:100860008E7F791408F0C9C084FE1DC182FC11C1BD
:100870002EEE8222B92C882D867809F4CBC00EC1C9
:1008800031E08ACF311501F1085F1F4F8FE3898373
:1008900021E0822E912C5E012FEFA21AB20AE89479
:1008A00077F873FC03C086149104F0F1811491046D
:1008B00009F041C0611409F43BCFB60180E290E039
:1008C0000E948E056A94F6CF0C5F1F4FDFCFF801B0
:1008D000808189830E5F1F4F91E0892E912C5E01EC
:1008E000FFEFAF1ABF0ADBCFF801A190B1908F01E3
:1008F000692D70E076FC02C06FEF7FEFC5010E94AA
:1009000083054C01CCCFF801A190B1908F01692DE6
:1009100070E076FC02C06FEF7FEFC5010E947805A2
:100920004C01689477F8BDCFB60180E290E00E9458
:100930008E056A94B8CFF50177FC859177FE819199
:100940005F01B60190E00E948E0581E0611001C058
:1009500080E0681AF1E08F1A9108A8CF6191719137
:10096000872F880F880B982F63CF9537C9F4872C72
:10097000E89484F82AE030E0F80187FE39C06191FC
:100980007191819191918F015E01FFEFAF1ABF0AC2
:10099000A5010E94BE05782E7A18E89487F85DCFED
:1009A000872D897F882E903799F058F49835A9F0D3
:1009B0009F36D9F0F601868197812B96EFE00C9453
:1009C00043069837B9F774FC05C020E130E0D4CF76
:1009D000689484F8689482F8F8CF74FE03C0E72D19
:1009E000E6608E2E20E132E0C7CF28E030E0C4CFB1
:1009F0006191719180E090E0C6CF882EB72C84FE83
:100A00003ACFFE01E70DF11D8081803309F044C02B
:100A100049EE842283FC0EC080FE51C0972CB61490
:100A200018F4960C9B18B62C862D8B196B1408F4B1
:100A300080E0B80EB61408F044C06B1884FE43C0C2
:100A4000B60180E390E00E948E0582FE09C088E531
:100A500090E081FC02C088E790E0B6010E948E051C
:100A60007914E0F15E018FEFA81AB80A7A9482E057
:100A7000882E912C8C0E9D1E870C911CF401829166
:100A80004F01B60190E00E948E058A149B04B1F7D5
:100A900011CFB92C882EB5CF82FC02C0B394BACF47
:100AA000B394B394B7CFB92C882EE5CEB60180E2CB
:100AB00090E00E948E05A394A614C0F3B5CFAB2C92
:100AC000FBCF612CBBCF882D867851F280E281FC70
:100AD0008BE287FC8DE2B60190E0C0CFB60180E3E7
:100AE00090E00E948E059A94BBCF8FEF9FEF65CF69
:100AF000FC010590615070400110D8F780959095E9
:100B00008E0F9F1F0895FC016150704001900110ED
:100B1000D8F7809590958E0F9F1F08950F931F9380
:100B2000CF93DF93182F092FEB018B8181FD09C033
:100B30000FEF1FEF812F902FDF91CF911F910F911A
:100B4000089582FF14C02E813F818C819D812817DA
:100B500039073CF4E881F981CF01019688839983B4
:100B600010838E819F8101968E839F83E3CFE885DA
:100B7000F985812F0995892BA1F3DACFFA01AA27EC
:100B8000283051F1203181F1E8946F936E7F6E5FD0
:100B90007F4F8F4F9F4FAF4FB1E03ED0B4E03CD07E
:100BA000670F781F891F9A1FA11D680F791F8A1F61
:100BB000911DA11D6A0F711D811D911DA11D20D0C8
:100BC00009F468943F912AE0269F11243019305D82
:100BD0003193DEF6CF010895462F4770405D419373
:100BE000B3E00FD0C9F7F6CF462F4F70405D4A33C0
:100BF00018F0495D31FD4052419302D0A9F7EACF88
:100C0000B4E0A6959795879577956795BA95C9F7B6
:100C100000976105710508959B01AC010A2E0694A9
:100C20005795479537952795BA95C9F7620F731F62
:100C3000841F951FA01D08959095809570956195CE
:100C40007F4F8F4F9F4F08952F923F924F925F9209
:100C50006F927F928F929F92AF92BF92CF92DF92CC
:100C6000EF92FF920F931F93CF93DF93CDB7DEB731
:100C7000CA1BDB0B0FB6F894DEBF0FBECDBF0994C5
:100C80002A88398848885F846E847D848C849B841C
:100C9000AA84B984C884DF80EE80FD800C811B812A
:100CA000AA81B981CE0FD11D0FB6F894DEBF0FBE59
:0A0CB000CDBFED010895F894FFCFC9
:100CBA00253032643A253032643A253032640025D0
:100CCA003032642F253032642F32302530326400BE
:100CDA0053455420484F55525300534554204D49CB
:100CEA004E555445530053455420444154450053EE
:100CFA004554204D4F4E54480053455420594541C0
:100D0A0052005254432050524F4A454354005254C1
:100D1A0043204552524F520054494D4520534156A3
:060D2A00454400256400B1
:00000001FF
